:400000007d740030303030307d00687e7d006c7e7d00707e7d00747e7d00787e7d007c7e7d00807e7d00847e7d00887e7d008c7e7d00907e7d00947e7d00987e7d009c7e09
:400040007e3030307e3030307d090d7e7d090e7e7e3030307e3030307e3030307e3030307e3030307d50777e7e3030307e3030307e3030307e3030307e3030307e303030e5
:400080007d0f9d7e7d0f9a7e7e3030307e3030307d0b6d7e7d0bce7e7e3030307e303030020304050607711062e38770ef50202850402850602841fefb50804e55f800558d
:4000c000f900711062e01270ef62e338627105627505627905627d0562d10750004e62d30762d00062d50062d40071c07c08a262d002500857a0082853b618750900284b0f
:4001000051b6800475090062e300082860d574a04b18750900082853b6187509000828a01c53b51875090008283fb647b6ffb0065dd57460d5187ab5bfeb8fc9187509002d
:40014000082853b550003fb647b6ffb0085dd57460d550007ab5bfef188faa18711043e32070ef62e000711062e01343e78070ef62e2007c34388fff50107f30303030300d
:40018000303030303030303030303030303030303030303030303030303030303030303020f4003e32303030005a203d20007548004c203d200070460043203d20003e31e9
:4001c0003000000a0012001400140025003200320047005000500065006e006e007800820082008d00aa00aa00b500be00be00d200e600e600f901040104010e011801186a
:4002000001220136013601630190019001bd01ea01ea01fe02128070707080609050706080509040705080407040703070207010700060005000300002ff5f0424fef60450
:4002400033ffe1040002ff530429ff0e042effe1040202ff52042aff0c042f000f03fd03ff620428ff1b042e007d03ed03ff3a0431ff0f043100df03e103ff51042dff2f81
:40028000042a00f403df04ff6d0428ff57042301d203bc04ff5d042dff520424029a03a305ff500430ff64042003f2037506ff7b0426ff6904200469035a06ff60042dff32
:4002c0008b04180528034307ff830425ffb60411079102ed09ffc40411001203fe0b5202530afff503ff004703f20e8901d40f000000010e0000000a0d000000640b0000ef
:4003000003e80a0000271009000186a007000f424020202020202020202020202020202020005341524b31303020414e414c595a4552002863294541344652422031312097
:40034000563132005043204c696e6b00537465702053697a650053757370656e642054696d656f75740043616c69627261746500536f667477617265204c6f616400535727
:400380005200494d500043415000494e44004f4646003130487a00313030487a00314b687a0031304b687a003130304b687a004f6666003330205300363020530039302008
:4003c00053003136304d0038304d0034304d0033304d0032354d0032304d0031374d0031354d0031324d0031314d0031304d00384d00374d00364d005343414e00457272fe
:400400006f72205666204c6576656c2000496e2070726f67726573732e2e2e00446f6e652020202020202020202000446973636f6e6e656374204c6f6164200053686f72c5
:40044000742d6369726375697400436f6e6e20353020f4206c6f6164202000436f6e6e2031353020f4206c6f61642000436f6e6e2032373420f4206c6f61642000556e6324
:40048000616c696272617465642021212000507265737320616e79206b6579004e6f7420496d706c656d656e74656400436f6e6669726d203f00457272204e6f204d6174fa
:4004c0006368696e670042573a0042414e443a005357204c6f6164696e67006f6e006f6666006672657100696d7000726177007363616e007363616e72000d0a5341524bef
:400500003130302053575220416e616c797a6572205631320d0a000d0a3e3e0057616974696e67204c696e6b000d0a4f4b0d0a00392e39390039393939000d0a537461726e
:40054000740d0a00456e640d0a000d0a4572726f723a2066726571206e6f74207365740d0a000d0a4572726f723a20657870656374656420667265712076616c0d0a000d83
:400580000a4572726f723a20657870656374656420737465702076616c0d0a000d0a4572726f723a20696e76616c696420667265710d0a000d0a436f6d6d616e64203c00ac
:4005c0003e206e6f7420666f756e640d0a0080908100826083f027002500260023002100220071fe7221732070007d667ea27f207c0079767a237b207800370035003600d7
:400600002f002d002e003304310032004f004d004e004b0049004a006028660063576500e600e700d600b000b100b200b333b433b500b600b855b900ba10bb33bc33bd01a8
:40064000be00c080c100c220c333c433c502c600c855c900ca30cb33cc33cd00ce006c006d006e006f00ff2421254526402020211522403421351736042c002d072e0030ac
:4006800020313732004c054df14e40481d49014a4461006900600062046733683363006600d100d300d000d200e13fe201df33de00dd00e700ff71106200516201ae70eff8
:4006c0006203ae620211711062020062030070ef62010071106204f462050b70ef620700620608711062060062070070ef62050071106208ff62090070ef620b00620a003c
:400700007110620a00620b0070ef6209007110620c00620d0070ef620f00620e007110620e00620f0070ef620d00711062100062110070ef621300621200711062120062c2
:40074000130070ef621100711062140062150070ef621700621600711062160062170070ef621500711062180062190070ef621b00621a007110621a00621b0070ef62196c
:40078000007110621c00621d0070ef621f00621e007110621e00621f0070ef621d007f0020202020202020202030303030302020202020202020202020202020202020202c
:4007c000904040404040404040404040404040400c0c0c0c0c0c0c0c0c0c4040404040404009090909090901010101010101010101010101010101010101014040404040e7
:40080000400a0a0a0a0a0a020202020202020202020202020202020202020240404040200000000000000000000000000000000000000000000000000000000000000000f4
:400840000000000000000000000000000000000000000000000000000000000000000000000000000000000000000000000000000000000000000000000000000000000078
:4008800000000000000000000000000000000000000000000000000000000000000000005f7c5502005503ff5504007c08b27c06b67f1070ef500067500557ce7c08cd5028
:4008c0000167500657677c08cd70ef207f380210084f56fc00d00456fc01182070ef62e30010082839ffa01f4f48fc01a003711054fd18207509001008284f59fd610018e3
:40090000207509008fd738fc703f71c07f7e08105dd30858015d4f082108b00418805e1821e0a0122c00494e002120a050414ffe434f0180485d4e470001b041390db014dc
:400940002e000162d301703f718056e000703f7100802a3920c02662d3013c011fc011703f718056e000703f71002e0010800e703f718054e0703f7100755a011860d320df
:40098000187e43df0443df087f41dffb41dff77f71102101a00743481070ef7f4148ef70ef7f2901604b604f912a7f414bfe414ffe7f60497f5d4b7f5d4e7f5d4f7f2101ed
:4009c00071103901a0064148ef800443481070ef7f082101a00643df08800441dff7182102a00643df04800441dffb7f303132333435363738394142434445460867676788
:400a000067210fffe7900f18210fffe090087f4b9fea5b9fe77f494b10affc60497f494f08affc5d4e7f5d4f082108b00418800b5d4e4b1821a0b0034b7f50007f5d4f2120
:400a4000e8082108b0071829014b80071821e04b5d4e7f70bf60d35200a0069fb9758ff8703f71c07f70bf62d3074f52fba01a7bfb52fc59fd60d35200494b10affc60499f
:400a80004f62d30777fd8fe4703f71c07f4f3dfa00b0063dfb00a01d1052fc59fd28494b10affc60492007fd010ffc0017fb011ffa008fdb703f71c07f081028a00b9f565b
:400ac000201875dff5748ff238fe7f500d9f47500a9f437f62d00155e00062d00055010026000062d00255ef007f62d000510021017f62d000510021f026000f7f62d00022
:400b000051017f70bf62d00250e002ef5c62d3015200b0041080333920b0117576ef52003cef1fbff310560000801f107576ef3cef1faff35200a0123920bff1560000760f
:400b4000ef3cef1fb00455ef1f20103d0000b00b2057005001703f71c07f205001703f71c07f62d00250e002ef5c50017f7e43e1107f41e1ef7f432f017f412ffe7f602d58
:400b80005b60317f602e5b60327f5d325c5d2e7f4f38035d2f085d2e085d32085d2c5d3254015d2e5402500049f701a0035001540070fe412ffe18603218602e18602f1881
:400bc00020703f71c07e5d2c5d325c5d2e7f7e43e1207f41e1df7f4337017f4137fe7f60357f60367f5d367f4f5d36084137fe71105d350862350070ef5d345d360852001f
:400c0000603671105201603570ef4337011838fe703f71c07f21034f085d7b21fc2b00607b18703f71c07f21fc4f085d792107480004b00e4178fe2b00607918703f71c012
:400c40007f2700182b00607943780118703f71c07f417bfc7f21034f085d7f21fc2b00607f18703f71c07f21fc4f085d7d2107480004b00e417cfe2b00607d18703f71c018
:400c80007f2700182b00607d437c0118703f71c07f417ffc7f21034f085d7321fc2b00607318703f71c07f21fc4f085d712107480004b00e4170fe2b00607118703f71c008
:400cc0007f2700182b00607143700118703f71c07f4173fc7f081028b00420187f9044201875dff2748fef303132333435363738394142434445460867676767210fffe795
:400d0000902118210fffe0901a7f4b9fea5b9fe77f70bf60d35200a0069008758ff8703f71c07f90650867676767210f903b18210f40404090337f90510867676767210f9e
:400d4000900918210f40404090017f0862d0002602805102600818210f29102a026008530240218f530260087f0862d0002602802e02205102600818210f29302a0260086d
:400d800053024021af530260087f0862d000260280510260082603f051037110600870ef2e024051026008401057ff2e02505102600840405d08082602c051026008404024
:400dc000402e02505102600840402602c051026008182108a00479bfd3202e037f51037110600870ef187f62d0002603802e037f2604805103711060085104600970ef5083
:400e0000fa906750fa906350039f405052905b50039f3890639061905f50039f2e505a904950029f26505a904150089f0a505a903950019f02505a903150069efa500e9ed8
:400e4000f6502c9ef250089eee500c9eea50039ee6505a90157f80c094d4210310fff74f03ff209ed2703f71c07f900c78bffc7f08193a7c010101010871105de070ef2182
:400e8000073905d006ffe978bffe187f4f1052fd59fc703f71c09fc2203dfa00b005500080113dfa06d00752fa15fa8006500617fa059e6f7bfbbfe2703f71c07f4f52fdb0
:400ec000210308ff9103fc9e6e3dfa00b005502080133dfa09d00952fa7856fa00800617fa0850079e3d18787bfbbfd7703f71c07f4f080850409e3f56000156010852006f
:400f00003b01d0055000800350ff9e177b01bfef77003d0009bfe51818500c9e1a703f71c07f0010181c1e1f1f001008040201004f3803540250409dfe56000056010852ca
:400f4000003d0200b005ffda8003ffdd9dd57b01bfee77003d0007bfe438fd500c9dd8703f71c07f7f7f5df70850010850c8087d107a5df70850015c50c87d120d210357d5
:400f80000079c00564648ffa4f085d6021fc2b00606018703f71c07f7f7f76067e7a05a0027e498310a00f406227054183ef4182df5505407e711041250f70ef7101438226
:400fc00020438310085d245d26622700711043254070ef733c0620b0057a0650ff68066d68066d5f07065308550901183c0a00a0177a0ab013622300622700404041e1fca1
:401000004382204383107e5505015506e06225ff7e104f2103085d8321fc2b0060831820703f71c07f4183fc7f62d000530a43e10143e1025505014382204383105506e046
:401040006221ff6225ff6223015509007f62d000622300622700404041e1fe41e1fd4382204383107f62d00051097f62d000580751087f62d0005509007f4f4b39eac006c6
:4010800050fe38fe7e4f7979380956080052fb0852fc0869fb6ffc69fb6ffc69fb6ffc69fb6ffc69fb6ffc69fb6ffc52fc050152fb0d001854fc1854fb52fa540352f9540a
:4010c0000252f6540452fc213f540950401309540a52f7b00952f83b0ad003540a3d0a40b01c5608ff105b01005c5dd1703f71c07c7d8b203900a04d560800801d52035483
:40110000fa520254f99046520839ffa03839fea03452fa540352f9540252f8130a54f8d0037bf752f82bf7a01c77010f00005203030a5403d003770252fc030a54fcdf86c9
:4011400077fb8f82520838f5703f71c07e5b4f4b39a0c0055608fe7f38445209030a540d5209a022105000085209085dd1085b010e0850000808520008520120703f71c0b7
:40118000908438fa203d0d40d028105000085040130d085dd1085b010e0b0d08500008520d08520008520120703f71c0905838fa205b0309010e53fc5dd160d5520353faf7
:4011c000520260d4520d130953ff3efa3ffc51fab0065dd47460d47affbff05203085b010e54035dd154025608ff105b01005c5dd1703f71c07c7d8b203900a00456080071
:4012000018540338bc7f53f85df70851f8081062d00020185af8646bf8646bf8646bf8646bf8646bf8646bf821c053f94f52f72bf8a03b52f753fe52f853ff76fe52fa5352
:40124000fd52f960d551f905fc51f80dfb52fb59fc08283ffd1875b002740851fdb0065dd57460d5187affbfe97afebfe5703f71c07e1050087c0bdf201050047c0be27cc3
:401280000bd37c0bd72050000850c8087c52cb38fe107c0bdb2050000850c8087c52cb38fe7f1050107c0bdf201050087c0be27c0bd37c0bd72050000850c8087c52cb384b
:4012c000fe107c0bdb207f1050087c0bdf201050047c0be27c0bd37c0bd7205000085005087c52cb38fe107c0bdb207f104f380a52f813fc52f71bfb52f61bfa52f51bf9a6
:40130000d01b52fc13f8540552fb1bf7540452fa1bf6540352f91bf55402800d56020056030056040056050162d00252fc03f853b352fb0bf753b452fa0bf653b552f90b7c
:40134000f50851b50851b40851b30850000808085064087c570538fc1854091854081854071854065202085203085204085205085206085207085208085209087c55b618b0
:4013800053b31853b4181838fc51b353b551b453b651b5540151b6540050e7130150031b00d0075601e756000362d002520153b5520053b638f6207f104f38043df500b079
:4013c0001c3df600b0173df700b0123df800b00d56f50056f60056f70056f80162d00252f90852fa0852fb0852fc0850000808085032087c570538fc1853b31853b4185390
:40140000b51853b652f50852f60852f70852f80851b60851b50851b40851b3087c55b618540318540218540118540038fc50d0130350071b0250001b0150001b00d00d5639
:4014400000005601005602075603d062d002520353b5520253b638fc207f104f380a62d00252fa53b352f953b452fa53af52f953b05000080851b40851b30850000808518d
:40148000b00851af087c570538fc1853b31853b41853b51853b670fb6eb66eb56eb46eb351b30188540751b40913540651b50900540551b60900540452fc53b352fb53b412
:4014c00052fc53af52fb53b05000080851b40851b3085000080851b00851af087c570538fc1853b31853b41853b51853b606b3c40eb4090eb5000eb60052fa53af52f9531d
:40150000b05000080851b00851af0851b60851b50851b40851b3087c570538fc185403185402185401185400520408520508520608520708520008520108520208520308a6
:401540007c55b61853b31853b4181838fc51b353b551b453b651b5540951b65408520953b5520853b638f6207f104f380662d00252fa53b352f953b455b50055b60052fcf8
:4015800053af52fb53b051af12b353b351b01ab453b450001ab553b550001ab653b6500112b350001ab450001ab551b6318053ac50801aacc00c62d00255b50055b60080b3
:4015c000a962d00252fa53b352f953b452fa53af52f953b05000080851b40851b3085000080851b00851af087c570538fc1853b31853b41853b51853b652fc53af52fb536a
:40160000b052fc53ad52fb53ae5000080851b00851af085000080851ae0851ad087c570538fc1853af1853b01853b11853b251af12b3540351b01ab4540251b11ab554019f
:4016400051b21ab6540052000852010852020852030891c638fc62d00251b5540551b65404520553b5520453b638fa207f104f38045000080850030850e80852f70852f898
:401680000852f90852fa0862d0027c55b61854fa1854f91854f81854f738fc52fc53b352fb53b45000080851b40851b30850000850010850860850a0087c570538fc1853db
:4016c000b31853b41853b51853b65000080808503f0851b60851b50851b40851b3087c55b618540318540218540118540038fc52f70852f80852f90852fa0852000852013a
:40170000085202085203087c55b61853b31853b4181838fc51b353b551b453b638fc207f104f3dfb00b0113dfc00b00c62d00255b50055b60080e25000080850030850e8e8
:401740000852f70852f80852f90852fa0862d0027c55b61854fa1854f91854f81854f738fc52f70852f80852f90852fa08500008085027085010087c55b61853b31853b441
:401780001853b51838fc0851b50851b40851b3085000080808509e087c570538fc1853b31853b41853b51853b652fb0852fc08500008500a087c56c738fc51ac53b151ab77
:4017c00053b251b153af51b253b05000080851b00851af08500008085027085010087c55b61853af1853b01853b11838fc0851b10851b00851af0851b60851b50851b408b1
:4018000051b3087c570538fc1853b31853b4181851b353b551b453b6207f104f380956040056050056060056070056000056010056020056030056080080e066036c026cfd
:40184000016c0062d00252f953b652fa53b552fb53b452fc53b3501e70fb62d0026eb66eb56eb46eb378bff1520453b2520553b1520653b0520753af500262d00265af6b47
:40188000b06bb16bb278bff351af02b3540751b00ab4540651b10ab5540551b20ab6540452f953b652fa53b552fb53b452fc53b3500262d00265b36bb46bb56bb678bff33f
:4018c00051b654f951b554fa51b454fb51b354fc0703010f02000f01000f00005207130352061b0252051b0152041b00c01f5203150752021d0652011d0552001d040703dc
:40190000010f02000f01000f0000800d1703011f02001f01001f000077083d0810cf1d62d002520053b6520153b5520253b4520353b370fb6eb66eb56eb46eb351b353b50d
:4019400051b453b638f7207f104f38047c327f5000080808087c28d838fc50010850f4087c52cb500408502b087c284438fc62d0023900b0047d23e9500008509808509692
:40198000085080087c28d850010850f4087c52cb38fa4172fe1050017c102920107c106562d002203900aff5107c106b62d00253b55ab62006b5000eb60851b5540251b6e5
:4019c0005401107c107320437201560000815362d002520053b550000851b5085000085006087c56c738fc51ac53b551ab53b606b5c40eb60151b6100858b52853b61875d4
:401a00000900282053b351b653b45000080851b40851b30850000850010850860850a0087c570538fc1853b31853b41853b5180851b50851b40851b3087c28d8500108506c
:401a4000f4087c52cb38fa56030080b262d002520353b555b60065b56bb606b5160eb60251b61058b52820107c0c672062d002520353b555b60065b56bb606b5170eb602ac
:401a800051b61058b52820107c0c27205000085064087c52cb38fe7c46d862d00250dc130253b5500f1b0153b651b553b351b653b455b50055b60062d002518f62d00212d4
:401ac000b362d002518e62d0021ab462d002518d62d0021ab562d002518c62d0021ab6c01b62d002520053b555b60006b59c0eb60251b660d552033fb5800877033d03118b
:401b0000cf4b3d0311b01962d002520053b555b60006b59c0eb60251b660d550103fb577003d000eceaa500408504a087c284438fe62d0023900b0047d23e9560000823e15
:401b40005200087c253138ff62d002520053b550000851b5085000085006087c56c738fc51ac53b551ab53b606b5c40eb60151b6100858b52853b618750900282053b351ab
:401b8000b653b45000080851b40851b30850000850010850860850a0087c570538fc1853b31853b41853b5180851b50851b40851b3087c28d850010850f4087c52cb38facc
:401bc0007c46d862d002519b62d00253b562d002519a62d00253b6520053b355b40065b36bb465b36bb465b36bb406b3000eb40151b460d551b63fb351b53fb362d0025161
:401c00009808519908519a08519b62d00253b31853b41853b51853b665b36bb46bb56bb662d002518c08518d08518e08518f085000080850030850e80862d0027c57053814
:401c4000fc1853af1853b01853b11853b251b60851b50851b40851b30851b20851b10851b00851af087c55b61853b31853b4181838fc51b353b551b453b6520053b355b4fb
:401c80000065b36bb465b36bb465b36bb406b3040eb40151b460d551b63fb351b53fb362d002519762d00253b562d002519662d00253b6520053b355b40065b36bb465b374
:401cc0006bb465b36bb406b3700eb40151b460d551b63fb351b53fb362d002519408519508519608519762d00253b31853b41853b51853b665b36bb46bb56bb662d00251fa
:401d00008c08518d08518e08518f085000080850030850e80862d0027c570538fc1853af1853b01853b11853b251b60851b50851b40851b30851b20851b10851b00851af5d
:401d4000087c55b61853b31853b4181838fc51b353b551b453b6520053b355b40065b36bb465b36bb465b36bb406b3740eb40151b460d551b63fb351b53fb377003d000e36
:401d8000cdbf500408505b087c284438fe62d0023900b00386545600008374520008979138ff62d002520053b550000851b5085000085006087c56c738fc51ac53b551abf2
:401dc00053b606b5c40eb60151b6100858b52853b618750900282053b351b653b45000080851b40851b30850000850010850860850a0087c570538fc1853b31853b4185393
:401e0000b5180851b50851b40851b3087c28d850010850f4087c52cb38fa7c46d862d002519b62d00253b562d002519a62d00253b6520053b355b40065b36bb465b36bb499
:401e400065b36bb406b3020eb40151b460d551b63fb351b53fb362d002519808519908519a08519b62d00253b31853b41853b51853b6500262d00265b36bb46bb56bb6787c
:401e8000bff362d002518c08518d08518e08518f085000080850030850e80862d0027c570538fc1853af1853b01853b1180851b10851b00851af0850000808085003087c9c
:401ec000570538fc1853af1853b01853b11853b251b60851b50851b40851b30851b20851b10851b00851af087c55b61853b31853b4181838fc51b353b551b453b6520053a1
:401f0000b355b40065b36bb465b36bb465b36bb406b3060eb40151b460d551b63fb351b53fb362d002519762d00253b562d002519662d00253b6520053b355b40065b36bff
:401f4000b465b36bb465b36bb406b3720eb40151b460d551b63fb351b53fb362d002519408519508519608519762d00253b31853b41853b51853b6500262d00265b36bb4e9
:401f80006bb56bb678bff362d002518c08518d08518e08518f085000080850030850e80862d0027c570538fc1853af1853b01853b11853b251b60851b50851b40851b30809
:401fc00051b20851b10851b00851af087c55b61853b31853b4181838fc51b353b551b453b6520053b355b40065b36bb465b36bb465b36bb406b3760eb40151b460d551b640
:402000003fb351b53fb362d002519362d00253b562d002519262d00253b6520053b355b40065b36bb465b36bb465b36bb406b3000eb40251b460d551b63fb351b53fb362fe
:40204000d002518c08518d08518e08518f08500008080850c80862d0027c570538fc1853b31853b41853b51853b65000080850010850900851b60851b50851b40851b308d7
:402080007c55b61853b31853b41853b51838fc0851b50851b40851b3085000080850030850e8087c570538fc1853b31853b41853b51853b662d0025190085191085192084a
:4020c00051930862d00251b60851b50851b40851b3087c55b61853b31853b4181838fc51b353b551b453b6520053b355b40065b36bb465b36bb465b36bb406b3040eb402c1
:4021000051b460d551b63fb351b53fb377003d000ecc89500408506c08972938fe62d0023900b00382c45600008277520008940138ff62d002520053b550000851b5085028
:4021400000085006087c56c738fc51ac53b551ab53b606b5c40eb60151b6100858b52853b618750900282053b351b653b45000080851b40851b30850000850010850860887
:4021800050a0087c570538fc1853b31853b41853b5180851b50851b40851b3087c28d850010850f4087c52cb38fa7c46d862d002519362d00253b562d002519262d00253ff
:4021c000b6520053b355b40065b36bb465b36bb465b36bb406b3020eb40251b460d551b63fb351b53fb362d002518c08518d08518e08518f085000080850010850c0086278
:40220000d0027c570538fc1853b31853b41853b51853b65000080850020850880851b60851b50851b40851b3087c55b61853b31853b41853b51838fc0851b50851b40851ce
:40224000b3085000080850030850e8087c570538fc1853b31853b41853b51853b662d00251900851910851920851930862d00251b60851b50851b40851b3087c55b61853e4
:40228000b31853b4181838fc51b353b551b453b6520053b355b40065b36bb465b36bb465b36bb406b3060eb40251b460d551b63fb351b53fb3520053b555b60065b56bb67a
:4022c00065b56bb665b56bb606b5000eb60151b60851b508520053b550000851b508500008500c087c56c738fc51ac53b551ab53b606b50f0eb60051b60851b508936b3897
:40230000fc62d002520053b555b60065b56bb665b56bb665b56bb606b5700eb60151b60851b508520053b550000851b508500008500c087c56c738fc51ac53b551ab53b6f7
:4023400006b5130eb60051b60851b508931c38fc62d002520053b555b60065b56bb665b56bb665b56bb606b5000eb60251b60851b508520053b550000851b508500008507b
:402380000c087c56c738fc51ac53b551ab53b606b50b0eb60051b60851b50892cd38fc77003d000ecd8662d00255f5017c50c57c327f1050005c7c0e5a20105003085066c5
:4023c0005c187c0cd52010570050017c0e5a2010500408501c5c187c0cd5207c1272501e087c330e38ff62d00238fc207f62d002518c08518d08518e08518f0850000808c8
:4024000050030850e80862d0027c570538fc1862d002538f18538e18538d18538c519362d00253b562d002519262d0020851b50850000850eb08915f38fc62d00251b553de
:40244000b351b653b45000080851b40851b30862d00251900851910851920851930862d0027c570538fc1862d002539318539218539118539062d0023cf400b0b462d002e2
:40248000519b62d00253b562d002519a62d0020851b50850000850ef0890fc38fc62d00251b553b351b653b45000080851b40851b30862d002519808519908519a08519b6f
:4024c0000862d0027c570538fc1862d002539b18539a185399185398519762d00253b562d002519662d0020851b50850000850f30890a438fc62d00251b553b351b653b46c
:402500005000080851b40851b30862d00251940851950851960851970862d0027c570538fc1862d00253971853961853951853947f104f62d00252fc53b555b60006b59cf4
:402540000eb60251b660d43eb553b555b60065b56bb606b5160eb60251b61058b52820107c0c672062d00252fc53b555b60006b59c0eb60251b660d43eb553b555b600659f
:40258000b56bb606b5170eb60251b61058b52820107c0c2720207f104f62d00252fc53b552fb60d43eb553b63eb553b351b653b447b480a00955b5ff55b6ff800a62d00261
:4025c00055b50055b60062d00252fa53af52f953b05000080851b00851af0851b60851b50851b40851b3087c570538fc1853b31853b41853b51853b6500008085027085096
:40260000100851b60851b50851b40851b3087c556e1853b31853b41853b51853b638fc52fc010253b152fb090060d43eb153b23eb153af51b253b047b080a00955b1ff5517
:40264000b2ff800a62d00255b10055b20062d00251af04b351b00cb451b10cb551b20cb651b353b551b453b6207f104f380462d00252fa010453b552f9090060d43eb553fb
:40268000b63eb553b351b653b455b50055b60052fa010653b152f9090060d43eb153b23eb153af51b253b051af12b3540351b01ab4540250001ab5540150001ab654005203
:4026c0000008520108520208520308500008085027085010087c570538fc18540318540218540118540052fa53b552f960d43eb553b63eb553b351b653b455b50055b600ca
:4027000052fa010253b152f9090060d43eb153b23eb153af51b253b051af12b353b351b01ab453b450001ab553b550001ab60851b50851b40851b3085200085201085202b3
:40274000085203087c556e1853b31853b4181838fc51b353b551b453b652fc53b352fb60d551b63fb351b53fb352fa010253b552f9090060d43eb553b63eb553b351b65305
:40278000b455b50055b60052fc53b152fb60d43eb153b23eb153af51b253b047b080a00955b1ff55b2ff800a62d00255b10055b20062d00251b60851b50851b40851b30832
:4027c00051b20851b10851b00851af087c570538fc1853b31853b41853b51853b65000080850270850100851b60851b50851b40851b3087c556e1853b31853b4181838fccc
:4028000052fa010653b152f9090060d43eb153b23eb153af51b253b051af12b353b351b01ab453b451b353b551b453b652fc010253b352fb090060d551b63fb351b53fb340
:4028400038fc207f104f1050005c7c0e5a201050030850665c187c0cd52010570050017c0e5a201052fb0852fc5c187c0cd5207c1272501e087c330e38ff62d0023905b068
:4028800005500080327c327f1050005c7c0e5a201050030850665c187c0cd52010570050017c0e5a2010500408500d5c187c0cd52062d0025001207f4104bf4104ef4104fb
:4028c000fb4304404104bf4304044104fb500008080808900338fc7f104f380a4104fb3df900b0103dfa00b00b3dfb00b0063dfc00a064500208508f08505c085029085255
:40290000f90852fa0852fb0852fc0862d0025ab506b50250070851b5089327500008501b0850770850400852060852070852080852090852020852030852040852050890b2
:402940009538ea62d00251b654f951b554fa51b454fb51b354fc560000804762d00252fc210153b352fb210053b452fa210053b552f921003900b0103cb500b00b3cb4006a
:40298000b0063cb300a00643041080044104ef4304404104bf770070fb6ff96ffa6ffb6ffc3d0020cfb6560101560000801a480101a00643041080044104ef4304404104b5
:4029c000bf770070fb6f013d0008cfe34304044104fb38f6207f104f38085600005601005602005603005605015604003d0000b1053d0100b1003d0200b0fb3d0300b0f612
:402a000062d00252f953b652fa53b552fb53b452fc53b3501f70fb62d0026eb66eb56eb46eb378bff151b6540051b5540151b4540251b3540352f553b652f653b552f753aa
:402a4000b452f853b3501f70fb62d0026eb66eb56eb46eb378bff152f953b252fa53b152fb53b052fc53af65af6bb06bb16bb251af2ab354fc51b02ab454fb51b12ab5545a
:402a8000fa51b22ab654f966f86cf76cf66cf552fc13f452fb1bf352fa1bf252f91bf1d009560701560600800756070056060062d002520753b3520653b447b480a00955ca
:402ac000b5ff55b6ff800a62d00255b50055b60062d00251b3350351b4350251b5350151b6350052f415fc52f31dfb52f21dfa52f11df980f462d00252f953b652fa53b569
:402b000052fb53b452fc53b3501f70fb62d0026eb66eb56eb46eb378bff151b6540051b5540151b4540251b3540352f553b652f653b552f753b452f853b3501f70fb62d075
:402b4000026eb66eb56eb46eb378bff152f953b252fa53b152fb53b052fc53af65af6bb06bb16bb251af2ab354fc51b02ab454fb51b12ab554fa51b22ab654f966f86cf77e
:402b80006cf66cf552f405fc52f30dfb52f20dfa52f10df952fc13f452fb1bf352fa1bf252f91bf1d009560701560600800756070056060062d002520753b3520653b447be
:402bc000b480a00955b5ff55b6ff800a62d00255b50055b60062d00251b3350351b4350251b5350151b6350062d0025001130353b350001b0253b450001b0153b550001bfa
:402c00000053b651b305f851b40df751b50df651b60df577050f0400502013055204318062d00253ac50801aacddc262d00252f553b652f653b552f753b452f853b338f845
:402c4000207f104f382462d00252f753b652f853b552f953b452fa53b3501070fb62d0026eb66eb56eb46eb378bff151b6540851b5540951b4540a51b3540b52fa540f5240
:402c8000f9540e560d00560c0052f353b652f453b552f553b452f653b3501070fb62d0026eb66eb56eb46eb378bff151b6541051b5541151b4541251b3541352f65417525a
:402cc000f55416561500561400521408521508521608521708520c08520d08520e08520f087c570538fc1854031854021854011854005203542352025422562100562000ff
:402d0000520053b6520153b5520253b4520353b3501070fb62d0026eb66eb56eb46eb378bff151b6540451b5540551b4540651b354075214085215085216085217085208e2
:402d400008520908520a08520b087c570538fc1853b31853b41853b51853b651b30307540351b40b06540251b50b05540151b60b0454005203541f5202541e561d00561c7c
:402d800000520053b6520153b5520253b4520353b3501070fb62d0026eb66eb56eb46eb378bff151b6541851b5541951b4541a51b3541b521008521108521208521308522a
:402dc0000c08520d08520e08520f087c570538fc1853b31853b41853b51853b651b3031f540351b40b1e540251b50b1d540151b60b1c5400520053b6520153b5520253b4e6
:402e0000520353b3501070fb62d0026eb66eb56eb46eb378bff151b6540451b5540551b4540651b35407521008521108521208521308520808520908520a08520b087c57fb
:402e40000538fc1853b31853b41853b51853b6521b04b3521a0cb452190cb552180cb6520704b352060cb452050cb552040cb652fc53b152fb60d551b63fb151b53fb15189
:402e8000b43fb151b33fb1520053b6520153b5520253b4520353b3501062d00265b36bb46bb56bb678bff3522304b352220cb452210cb552200cb652fc010453b152fb0963
:402ec0000060d551b63fb151b53fb151b43fb151b33fb138dc207f107c0de7201050007c0f30207f104f3818500008500a0852f90852fa0852fb0852fc0862d0025ab506b6
:402f0000b50f50070851b5087c5dc2560e0062d0025ab506b50f50070851b5087c57ea38f662d00216b5011eb60051b5540351b6540256010956000080be62d00255b60734
:402f40005ab506b50f520302b553b552020ab660d43eb553b655b4075ab306b304520102b353b352000ab460d551b63fb33d0000b03d3d0107b0383d0200b0063d0300a0ce
:402f80002e62d0025201110153b55200190053b651b5540151b654005ab306b30451b304b50eb60751b660d5502e3fb580403d0000b03b3d0103b0363d0200b0063d0300d4
:402fc000a02c62d0025201110153b55200190053b651b5540151b654005ab306b30451b304b50eb60751b660d5502c3fb57b031f02007b011f00005203110052023180197e
:4030000080df38802162d00255b6075ab506b504520102b553b552000ab660d550203fb57b011f00003d00ffbfdc3d01ffbfd762d0025ab506b5041050070851b55c187cdb
:403040000d112038e8207f104f380452fc11e752fb1903c00f1050010850be5c187c0cd5208035500008500a0852fb0852fc0862d002500708107c597038fa1052007c0db3
:40308000232010502e7c0d23201052017c0d23201052027c0d232038fc207f104f3810500008500a0852fb0852fc0862d002500708107c597038fa62d00210500708187ce4
:4030c0000d11201052f87c0d232010506a7c0d2320500008500a0852f90852fa0862d002500708107c597038fa62d00210500708187c0d112038f0207f104f381010500117
:403100000850b95c187c0cd520500008500a0862d002500008500a0852fb0852fc087c55ab1853b51838fe0851b508500708107c597038fa62d00210500708187c0d1120df
:4031400010502e7c0d2320500008500a0862d002500008500a0852fb0852fc087c55ab38fe1853b5180851b508500708107c597038fa62d00210500708187c0d11201050e7
:40318000010850b65c187c0cd52038f0207f104f38101050010850b15c187c0cd520500008500a0862d002500008500a0852fb0852fc087c55ab1853b51838fe0851b508f3
:4031c000500708107c597038fa62d00210500708187c0d112010502e7c0d2320500008500a0862d002500008500a0852fb0852fc087c55ab38fe1853b5180851b508500770
:4032000008107c597038fa62d00210500708187c0d11201050010850ae5c187c0cd52038f0207f104f38101050010850a95c187c0cd52050d013fc50071bfbd00f10500195
:403240000850a35c187c0cd5208031500008500a0852fb0852fc0862d002500708107c597038fa62d00210500708187c0d11201050010850a05c187c0cd52038f0207f109c
:4032800050017c0d37207f104f380162d0023cf200a00862d0025000807190b562d002540090ae62d00253b652003ab6a0045600003d0000a04a7c12c762d00255f2026268
:4032c000d00252003af6b02962d0023cf300b0363d0005b00c62d00255f20056000780263d0006b02162d00255f200560008801662d00255f305520062d00253f680076220
:40330000d00255f600520062d00238ff207f104f3801711041e0f843e00552fc70cf62d00253f043ff089f5f54003dfc00a00b62d0023cf000b00380063d0000afe671104a
:4033400041e0f843e003520070cf62d00238ff207f104f380156000043048043042043004041047f5d0462d00253b647b602b0045600015d0462d00253b647b601b00456c2
:4033800000034304804104df5d0462d00253b647b602b0045600045d0462d00253b647b601b0045600054304204100bf5d0462d00253b647b602b0045600025d0462d00224
:4033c00053b647b601b00e3d0005b0065600098004560006430040520062d00238ff207f104f380270fe41047f4104df4100bf5d63540071105d62540170cf4163f87110fe
:403400004162c34306034107fc70cf43050341e0bf43e02041da20710143ff0862e2004105fc41e0df43e0405200606352017110606270cf38fe207f104f381e56020056e7
:40344000010556000056070056080462d00255f40062e33843e04071017c2ed762d0005102298053024308801050005c7c0e5a201050030850225c187c0cd520105700504e
:40348000017c0e5a201050030850335c187c0cd5205004087c330e38ff62d0027c514162d0023cf500b03e7c12a27c327f1050005c7c0e5a2010500408507d5c187c0cd51c
:4034c0002010570050017c0e5a2010500408508e5c187c0cd5205004087c330e38ff62d0027c327f7c28b862d002520153b550000851b5085000085006087c56c738fc51df
:40350000ac53b551ab53b606b5c40eb60151b6100858b52853b618750900282053b351b653b45000080851b40851b30850000850010850860850a0087c570538fc1853b315
:403540001853b41853b518540351b5540451b4540551b35406520153b550000851b508500008500c087c56c738fc51ac53b551ab53b606b50b0eb60055b3eb55b40051b6a2
:4035800060d451b460d510570c62d0023eb53fb379bff720560d00808e62d002520d53b550000851b5085000085006087c56c738fc51ac53b551ab53b606b5c40eb601512e
:4035c000b6100858b52853b618750900282053b351b653b45000080851b40851b30850000850010850860850a0087c570538fc1853b31853b41853b51853b6520d53b1558b
:40360000b20065b16bb265b16bb206b1b30eb20051b260d551b63fb151b53fb151b43fb151b33fb1770d3d0d0ecf6f1050037c0c55201050037c0c15205201087c2531383b
:40364000ff1050037c1011201050037c0c95201050587c0ca7205203085204085205085206087c28d85000085064087c52cb38fa7c46d862d002518f11f4518e1901518d25
:403680001900518c1900d03b7c12a21050005c7c0e5a201050030850fd5c187c0cd52010570050017c0e5a2010500408508e5c187c0cd520501e087c330e38ff62d0027c46
:4036c000327f62d00251ee087c53f938ff62d00253f056130056162056150056140010500c7c0d37207c327f1050005c7c0e5a2062d002520253b555b60065b56bb606b594
:40370000c10eb60251b660d43eb553b63eb553b51051b60851b55c187c0cd5203d0204a01b10570650007c0e5a205203085204085205085206087c2ee438fc3d0204a2c218
:403740003d0007a2bd3d0008a2b87c46d87c23ed62d002519008519108519208519308518c08518d08518e08518f087c12ec38f862d00251b50851b662d00253eb1853ecad
:4037800062d002519408519508519608519708519808519908519a08519b087c13b838f862d00251b50851b662d00253e91853ea62d00251eb0851ec0862d00251e9085148
:4037c000ea087c145a38fc62d00251b50851b662d00253e51853e651e50851e60862d00251e90851ea087c156938fc62d00251b50851b662d00253e71853e852025418562f
:4038000017003d1700b0063d1800a0213d1700b0063d1801a05c3d1700b0063d1802a13a3d1700b0063d1803a18581d610570050017c0e5a201050030850115c187c0cd581
:403840002010570050017c0e5a2062d00251eb0851ec087c304738fe10570550017c0e5a2062d00251e90851ea087c322338fe81913d1300b08862d00251e8541551e75409
:403880001456130162d0025206014053b35205094253b45204090f53b5520309000851b50851b40851b3087c28d838fc10570050017c0e5a201050030850115c187c0cd502
:4038c0002010570050017c0e5a2062d00251eb0851ec087c304738fe10570550017c0e5a2052160862d00251e70851e80862d00251e50851e6087c309b38fb810556130006
:403900005203085204085205085206087c28d862d002521512e862d00253b5521462d0021ae762d0020851b5087c5f4538fa62d00251b5111451b631801980d00656162077
:4039400080c062d00251e8131551e71b14d00656162b80ae56162d80a910570050017c0e5a201050030850115c187c0cd52010570050017c0e5a205203085204085205085f
:4039800052060862d00251e70851e8087c172038fa62d00251b50851b662d00253e31853e451e30851e4087c30f938fe805410570050017c0e5a201050030850115c187c6b
:4039c0000cd52010570050017c0e5a2052030852040852050852060862d00251e70851e8087c166d38fa62d00251b50851b662d00253e11853e251e10851e2087c318e38c4
:403a0000fe3d0204b0657c478662d002519808519908519a08519b08500008080850500862d0027c570538fc1853b31853b41853b51853b650000808500f0850a00851b655
:403a40000851b50851b40851b3087c55b61853b318181838fc51b310085010085000085001087c0e8c38fc20804c62d002520853b550000851b5085000085005087c56c741
:403a800038fc51ac53b551ab53b606b5ee0eb60251b61058b5282010085000207c0e5a203d0701b00a10500d7c0d3720800810500e7c0d372062d00255f10843ff087c32c5
:403ac0008762d00254005200541d561c003d1c00b0063d1d01a0533d1c00b0063d1d02a0ca3d1c00b0063d1d03a1253d1c00b0063d1d04a2473d1c00b0063d1d05a2ce3dad
:403b00001c00b0063d1d06a3d83d1c00b0063d1d07a2ba3d1c00b0063d1d08a3c43d1c00b0063d1d09a29084c656070010500c7c0d37205000080808087c28d838fc7c44bd
:403b40005862d002520153b550000851b508500008500c087c56c738fc51ac53b551ab53b606b50b0eb60055b3eb55b40051b660d451b460d510570c62d0023eb53fb37965
:403b8000bff7205201087c253138ff3d0204a0125203085204085205085206087c28d838fc10500e7c0d372084455607003d0204b02d1050037c0c55201050037c0c152098
:403bc0005201087c25315203085204085205085206087c28d838fb10500e7c0d372062d0025202010154023905c0045602003d0204b3fc10500c7c0d372050000808080839
:403c00007c28d838fc107c0c917c0c512083e03d0204b00383d956070010500c7c0d372062d002520153b555b60065b56bb665b56bb606b5b30eb60051b660d552033fb58d
:403c400052043fb552053fb552063fb5520101015401390ec00456010062d002520153b555b60065b56bb665b56bb606b5b30eb60051b660d43eb554033eb554043eb554fe
:403c8000053eb55406520153b550000851b508500008500c087c56c738fc51ac53b551ab53b606b50b0eb60055b3eb55b40051b660d451b460d510570c62d0023eb53fb3d7
:403cc00079bff7205201087c25315203085204085205085206087c28d838fb7c327f1050005c7c0e5a201050040850ca5c187c0cd52010570c50007c0e5a2062d00252016d
:403d000053b555b60065b56bb606b5700eb60251b660d43eb553b63eb553b51051b60851b55c187c0cd5205004087c330e38ff62d00210500e7c0d372082b43d0204b003fe
:403d400082ad56070010500c7c0d372062d00255f40162d00251ed08520108937238fe62d00251b6540951b5540a51b4540b51b3540c3d09ffb0103d0affb00b3d0bffb01c
:403d8000063d0cffa01152095403520a5404520b5405520c54065203085204085205085206087c28d838fc62d00255f40010500e7c0d372082393d0204b00382323d070191
:403dc000b006560700822856070182233d0204b003821c3d0701b01362d0025208010154083907c20a560800820562d002520853b550000851b5085000085005087c56c740
:403e000038fc51ac53b551ab53b606b5ef0eb60251b6100858b52853b618750900082853b518750900082853b4187509002853b320520602b3541b52050ab4541a52040a99
:403e4000b5541952030ab65418521808521908521a08521b087c544c38fc62d00254173d17ffb0067c12a281865218540352195404521a5405521b540652013b17a04f52ac
:403e800017540162d002520153b550000851b508500008500c087c56c738fc51ac53b551ab53b606b50b0eb60055b3eb55b40051b660d451b460d510570c62d0023eb53f3a
:403ec000b379bff7205201087c253138ff5203085204085205085206087c28d838fc810f3d0204b00381083d0701b00f3d0800b00656080680f97b0880f562d0025208536e
:403f0000b550000851b5085000085005087c56c738fc51ac53b551ab53b606b5ef0eb60251b6100858b52853b618750900082853b518750900082853b4187509002853b3ae
:403f400020520612b3541b52051ab4541a52041ab5541952031ab65418521808521908521a08521b087c544c38fc62d00254173d17ffb0067c12a280765218540352195473
:403f800004521a5405521b540652013b17a04f5217540162d002520153b550000851b508500008500c087c56c738fc51ac53b551ab53b606b50b0eb60055b3eb55b40051c0
:403fc000b660d451b460d510570c62d0023eb53fb379bff7205201087c253138ff5203085204085205085206087c28d838fc3d0000b00962d0023cf100bac13d0000a01174
:4040000062d00251ee087c53f938ff62d00253f062d0023cf000b0a862d00251ee087c53f938ff62d0023900a0965607005000080808087c28d838fc41087f62d00026021b
:404040007f107c0c917c0c517c10257c0cd17c0de7201050087c0d37207c33e010500e7c0d372043088062d0005102298053027c28b862d00251ee087c53f938ff62d002a8
:4040800053f03d0204a0285203085204085205085206087c28d838fc1050037c0c55201050037c0c15205201087c253138ff1050037c1011201050037c0c95205600013d50
:4040c0000000b0047d373b7d36d238e2208fff104f38175612ff5613ff5614ff5615ff5606ff5607ff5608ff5609ff560eff560fff5610ff5611ff5605c85604007c327fd2
:404100001050005c7c0e5a201050030850f85c187c0cd52062d00252fc53b550000851b5085000085006087c56c738fc51ac53b551ab53b606b5c20eb60151b6100858b530
:404140002853b618750900282053b351b653b45000080851b40851b30850000850010850860850a0087c570538fc1853b31853b41853b518540051b5540151b4540251b38d
:40418000540352fc53b550000851b5085000085006087c56c738fc51ac53b551ab53b606b5c60eb60151b6100858b52853b618750900282053b351b653b45000080851b465
:4041c0000851b30850000850010850860850a0087c570538fc1853b31853b41853b518540a51b5540b51b4540c51b3540d5200085201085202085203087c28d838fc105791
:404200000650007c0e5a205200085201085202085203087c2ee47c46d87c23ed62d002519008519108519208519308518c08518d08518e08518f087c12ec38f462d002515f
:40424000b50851b662d00253eb1853ec10570050017c0e5a201050030850115c187c0cd52010570050017c0e5a2062d00251eb0851ec087c304738fe62d00250c812ec50fc
:40428000001aebc0383d06ffb07c3d07ffb0773d08ffb0723d09ffb06d7c12725000085032087c52cb38fe7c127252005406520154075202540852035409804a3d06ffb038
:4042c000103d07ffb00b3d08ffb0063d09ffa0363d0effb0313d0fffb02c3d10ffb0273d11ffb0227c12725000085032087c52cb38fe7c12725200540e5201540f52025444
:40430000105203541162d002520512ec52041aebc01c5200541252015413520254145203541562d00251ec540551eb540452fb087c536338ff62d00251b3050351b40d0297
:4043400051b50d0151b60d007c328762d0023905b01d5000080808087c28d838fc62d00255b6ff55b5ff55b4ff55b3ff80e75203130d52021b0c52011b0b52001b0ace6ea8
:404380005000080808087c28d838fc7c12727c327f1050005c7c0e5a203d12ffb01e3d13ffb0193d14ffb0143d15ffb00f1050040850b65c187c0cd520806a3d0effb02031
:4043c0003d0fffb01b3d10ffb0163d11ffb0115200540e5201540f52025410520354111050005c7c0e5a201050040850c65c187c0cd52010570650007c0e5a2062d0025231
:4044000011130953b352101b0853b4520f1b0753b5520e1b060851b50851b40851b3087c2ee438fc10570050017c0e5a2010500408508e5c187c0cd520501e087c330e385e
:40444000ff62d002521253b6521353b5521453b4521553b338e9207f104f38065601007c327f1050005c7c0e5a2062d002520153b555b60065b56bb606b5b70eb60251b6a0
:4044800060d43eb553b63eb553b51051b60851b55c187c0cd520501e087c330e38ff62d00254003d0000b003822b3d0001b01362d0025201010154013905c217560100825d
:4044c000123d0005b003820d3d0006b206520154055604003d0400b0063d0500a02b3d0400b0063d0501a0263d0400b0063d0502a0ca3d0400b0063d0503a16e3d0400b040
:40450000063d0504a18d81cb7c48b681c662d00251ed54027c327f1050005c7c0e5a2062d002520153b555b60065b56bb606b5b70eb60251b660d43eb553b63eb553b510f0
:4045400051b60851b55c187c0cd52010570050017c0e5a2062d002520253b555b60065b56bb606b5cb0eb60251b660d43eb553b63eb553b51051b60851b55c187c0cd5200f
:40458000501e087c330e38ff62d00254003d0001b0105202010154023905c01e56020080193d0005b003812b3d0006b00d520262d00253ed7c5121811a8f5a62d00251ee04
:4045c00054037c327f1050005c7c0e5a2062d002520153b555b60065b56bb606b5b70eb60251b660d43eb553b63eb553b51051b60851b55c187c0cd52010570050017c0ee0
:404600005a2062d002520353b555b60065b56bb606b5d50eb60251b660d43eb553b63eb553b51051b60851b55c187c0cd520501e087c330e38ff62d00254003d0001b0109b
:404640005203010154033904c01e56030080193d0005b003807d3d0006b00d520362d00253ee7c5121806c8f5a10570050017c0e5a201050040850ac5c187c0cd520501e7d
:40468000087c330e38ff62d0023906b0467c1948804110570050017c0e5a201050040850ac5c187c0cd520501e087c330e38ff62d0023906b01d7c327f1050005c7c0e5a6b
:4046c000201050040850d05c187c0cd52070fe7d00008d8c38fa207f1050007c0f7d2090cb62d00251b60851b50851b40851b362d002538f18538e18538d18538c105003a2
:404700007c0f7d2090a662d00251b60851b50851b40851b362d00253971853961853951853941050027c0f7d20908162d00251b60851b50851b40851b362d002539b185311
:404740009a1853991853981050287c0ca7205000085001087c52cb38fe1050017c0f7d20904a62d00251b60851b50851b40851b362d002539318539218539118539010500e
:40478000587c0ca7207f1050027c0f7d20901d62d00251b60851b50851b40851b362d002539b18539a1853991853987f104f38055602005601004172fe1050017c1029205b
:4047c000107c106562d002203900aff5107c106b62d00253b55ab62006b5000eb60851b5540451b65403107c10732043720162d0023cf400b0531050087c102920560000f2
:40480000802e107c106562d002203900aff5107c106b62d00253b55ab62006b5000eb60851b5050251b60d01107c10732077003d0008cfcf70fb6f016f0270fb6f016f025b
:4048400070fb6f016f0280331050017c102920107c106562d002203900aff5107c106b62d00253b55ab62006b5000eb60851b5540251b65401107c10732052021304520132
:404880001b03c02062d0025202130453b552011b0353b651b553b351b653b455b50055b600801062d00255b60055b50055b40055b30038fb207f104f3802107c0ad42010bb
:4048c00050017c09d1201050007c09a220710110500c7c0a16201050040850fa5c187c0ab9201050050850175c187c0ab92010570050017c0e5a2010500508501c5c187cfb
:404900000cd52081987c328762d0023905b003818e107c0aea62d002203900a180107c0b0362d00253b65ab52051b5540151b654003cb600b0063cb500a1511057005001c7
:404940007c0e5a201050030850115c187c0cd52010570050017c0e5a201052000852015c187c0d112052000852010850040850db087c57b438fc62d0023cb600b00a3cb5ff
:4049800000b005912d810552000852010850040850de087c57b438fc62d0023cb600b00a3cb500b005915180e352000852010850040850ef087c57b438fc62d0023cb600f8
:4049c000b00f3cb500b00a500008947538ff80bc52000852010850040850f4087c57b438fc62d0023cb600b00f3cb500b00a500108944e38ff809552000852010850040839
:404a000050e2087c57b438fc62d0023cb600b00a3cb500b00590f9807352000852010850040850e7087c57b438fc62d0023cb600b00f3cb500b00a107c0acb2091ac804c5a
:404a400052000852010850040850eb087c57b438fc62d0023cb600b00f3cb500b00a107c0acb20930280251050050850b45c187c0ab9201052000852015c187c0a5320105e
:404a800050050850c05c187c0ab920107c0ad4201050050850175c187c0ab9208e685000080808087c28d838fc107c09ab2038fe207f62d0023cddffb01e3cdeffb0193c02
:404ac000dfffb0143ce0ffb00f10500508504a5c187c0ab920802162d00251dd0851de0851df0851e0087c28d838fc1050050850295c187c0ab9207f5000080808087c28b1
:404b0000d838fc1050050850295c187c0ab9207f104f3803107c0b0362d00253b65ab52051b5540251b654013d0100b0143d0200b00f1050050850625c187c0ab92080a7c0
:404b40005201085202087c581038fe62d00251b60851b50851b40851b362d00253e01853df1853de1853dd51dd0851de0851df0851e0087c544c38fc62d00254003d00ffce
:404b8000b00f10500508509c5c187c0ab920805762d002520053b550000851b508500008500c087c56c738fc51ac53b551ab53b606b50b0eb60055b3eb55b40051b660d4eb
:404bc00051b460d510570c62d0023eb53fb379bff7205200087c253138ff1050050850295c187c0ab92038fd207f104f38147c46d87c23ed62d002519008519108519208ed
:404c0000519308518c08518d08518e08518f087c12ec38f862d00251b50851b662d00253eb1853ec62d002519408519508519608519708519808519908519a08519b087cfe
:404c400013b838f862d00251b50851b662d00253e91853ea62d00251eb0851ec0862d00251e90851ea087c145a38fc62d00251b50851b662d00253e51853e651e50851e61c
:404c80000862d00251e90851ea087c156938fc62d00251b50851b662d00253e71853e8500008500a0862d00251eb0851ec0862d002500708107c597038fa1052007c0a166c
:404cc0002010502e7c0a16201052017c0a16201052027c0a162010502c7c0a1620500008500a0862d00251e50851e60862d002500708107c597038fa62d002105007081883
:404d00007c0a532010502c7c0a1620500008500a0862d00251e70851e80862d002500708107c597038fa62d00210500708187c0a532010502c7c0a1620500008500a086291
:404d4000d00251e90851ea0862d002500708107c597038fa62d00210500708187c0a537c0acb2038ec207f104f38147c46d87c23ed500008500a0862d002518c08518d0870
:404d8000518e08518f0862d002500708107c5b4938f862d00210500708187c0a532010502c7c0a1620500008500a0862d00251900851910851920851930862d0025007080a
:404dc000107c5b4938f862d00210500708187c0a532010502c7c0a1620500008500a0862d002519808519908519a08519b0862d002500708107c5b4938f862d00210500711
:404e000008187c0a532010502c7c0a1620500008500a0862d00251940851950851960851970862d002500708107c5b4938f862d00210500708187c0a537c0acb2038ec202d
:404e40007f104f381462d00255f400107c0b0362d00253b65ab52051b5540f51b6540e3d0e00b0143d0f00b00f1050050850625c187c0ab92081f7520e08520f087c58107a
:404e800062d00251b6540051b5540151b4540251b354035200085201085202085203087c544c38fa62d00254043d04ffb00f10500508509c5c187c0ab92081b2107c0b0312
:404ec00062d00253b65ab52051b5540f51b6540e3d0e00b0143d0f00b00f1050050850625c187c0ab9208186520e08520f087c581062d00251b6540651b5540751b4540855
:404f000051b354095206085207085208085209087c544c38fa62d00254043d04ffb00f10500508509c5c187c0ab9208141107c0b0362d00253b65ab52051b5540f51b654f9
:404f40000e3d0e00b0143d0f00b00f10500508507f5c187c0ab9208115520e08520f087c581038fe62d00251b6540a51b5540b51b4540c51b3540d10500508503a5c187cca
:404f80000ab9205605ff80a65200085201085202085203087c28d838fc500008500a087c52cb5200085201085202085203087c544c38fa62d002540452043b05a0555204f4
:404fc0005405520453b550000851b508500008500c087c56c738fc51ac53b551ab53b606b50b0eb60055b3eb55b40051b660d451b460d510570c62d0023eb53fb379bff74b
:40500000205204087c25315000085032087c52cb38fd3dfc00a0059d4e80039bcd520d0503520c0d02520b0d01520a0d005203130952021b0852011b0752001b06cf4a101b
:4050400050050850445c187c0ab92062d0023cddffb01b3cdeffb0163cdfffb0113ce0ffb00c5000080808087c28d838fc62d00255f40038ec207f71c0085dd00862e33879
:4050800062d0023cf100a0037af162d0023cf200a0037af262d00051f7110153f762d0023900a003801b62d00055f70862d0023cf300a0037af362d0023cf000a0037af029
:4050c0001860d0187e1050190850000850a808500008500b08500008087c0f6662d00238f9201050190850000850010850020850f50850000850c6087c0f6662d00238f9c3
:405100002010501908500008500e08500208509c0850000850a8087c0f6662d00238f9207f1050190850000850020850020850ed0850000850c7087c0f6662d00238f920b6
:405140007f104f38041050000850020862d0025ab506b50150070851b50850000850c9087c0f7238fa203d0155b0063d02aba0f656000080ac62d002520053b5500008519d
:40518000b508500008500d087c56c738fc51ac53b551ab53b606b5390eb602520053b350000851b308500008500c087c56c738fc51ac53b351ab53b406b30b0eb40051b40e
:4051c00060d51055ac0051b658b5082862d0023fb31875090076ac3cac0cbfef20520053b550000851b508500008500d087c56c738fc51ac53b551ab53b606b5380eb60278
:4052000051b61058b5282053b6520053b355b40006b39c0eb40251b460d551b63fb377003d000ecf5162d00255f5009e9862d00255ee0355ed039ee95602ab560155105061
:40524000190850000850020862d0025ab506b50150070851b50850000850c9087c0f6662d00238f9201050000850a808500008500b08500008087c0f7238fa2010500008c6
:4052800050010850020850f50850000850c6087c0f7238fa2010500008500e08500208509c0850000850a8087c0f7238fa201050000850020850020850ed0850000850c796
:4052c000087c0f7238fa2038fc207f104f62d00252fb0852fc085000085021087c56c738fc51ac53b551ab53b606b5010eb6001051b60851b5207c0b7e7c0b7620107c0b20
:40530000c662d0025ab6203cb600bff23900bfee107c0b7a20207f104f62d00252fc21f067676767210f60e862e90a405deb53b652fc210f04b651b6207f104f62d002503d
:405340000a0852fc087c55c51838ff6464646453b6500a0852fc087c55c538ff182cb651b6207f104f380252fc54015600003d0000b0063d0100a02b3d0000b0063d010162
:40538000a0323d0000b0063d0102a0393d0000b0063d0103a0403d0000b0063d0104a047801262d00255b60055b50055b40055b30a804362d00255b60055b50055b400557f
:4053c000b364803262d00255b60055b50055b40355b3e8802162d00255b60055b50055b42755b310801062d00255b60055b50155b48655b3a038fe207f104f380252fc544c
:40540000015600003d0000b0063d0100a0213d0000b0063d0101a01e3d0000b0063d0102a01b3d0000b0063d0103a018800862d0025000801462d002501e800d62d0025006
:405440003c800662d002505a38fe207f104f380156000080d262d002520053b550000851b5085000085006087c56c738fc51ac53b551ab53b651b501c253b351b609011006
:405480000858b32853b418750900282053af51b453b05000080851b00851af0850000850010850860850a0087c570538fc1853af1853b01853b11853b252fc12af52fb1ada
:4054c000b052fa1ab152f91ab2c05a62d00206b5c60eb60151b6100858b52853b618750900282053b351b653b45000080851b40851b30850000850010850860850a0087c6f
:40550000570538fc1853b31853b41853b51853b652fc12b352fb1ab452fa1ab552f91ab6d003800877003d000ecf2b3d000ec036500013fc50871bfb50931bfa50031bf9f6
:40554000d00862d00250ff802252fc114052fb194252fa190f52f91900d00862d00250ff800956000d520062d00238ff207f104f380150003df980c0067c567950c03df57b
:4055800080c00c104b11044b7c5679318020087c5616186ad0047c56796ad0084b11044b7c567938ff20703f71c07f104f7c55dd20703f71c07f104f38017c561638ff20e6
:4055c000703f71c07f104f5dd00862d0027c569151ac54fb1860d020703f71c07f5dd00862d002500053ab53ac55aa1066fc6cfb6bab6bac51ab1bfa51ac1bf9c00953ac69
:4056000052fa1cab77fc7aaabfe351ab54fa51ac54f91860d07f5dd00862d00251b608500053b653ac53ab53aa56002066fc6cfb6cfa6cf96baa6bab6bac6bb651aa1bf87d
:4056400051ab1bf751ac1bf651b61bf5c01153b652f814aa52f71cab52f61cac77fc7b00bfcb51aa54f851ab54f751ac54f651b654f51853b61860d07f37fcff77fc37fb99
:40568000ff0ffb0037faff0ffa0037f9ff0ff9007f55ac0055ab0866fc6bac51ac1bfbc00553ac77fc7aabbfef7f53ac60e851ab60e95dea47ac80a00302ab47ab80a00329
:4056c00002ac53ac5deb7f104f5dd00862d00252f960e952fc60e85deb53ab52fa60e95deb53ac5dea48fc80a00303fa6cfad00303fc04ab52fb60e85deb04ab1860d0209c
:40570000703f71c07f104f5dd00862d00252f560e852fc53ab60e95deb54f552f67c56aa54f651ac05f552fb60e95deb05f552f84cab7c56aa54f85faaac52fb7c56aa0425
:40574000aa51ac0df60ff50052fa7c56aa05f651ac0df552f960e85deb05f552f753ab52fc7c56aa02aa54f751ac0df60ff50052fb7c56aa05f651ac0df552fa60e85deb39
:4057800005f51860d020703f71c07f62d002104f52fb60d552f960d48003104f52fc53b553b452fb53b652fa53b33eb33fb43900bff9207f62d002104f52f960d480031094
:4057c0004f52fa53b41052fb59fc2853b52077fc0ffb003eb414b5b0053900bfe955b60047b580a00455b6ff207f62d002104f52fb60d48003104f55b50055b60052fc53b7
:40580000b43eb43900a00876b50eb6008ff4207f104f3806800677fc0ffb0062d00252fc53b552fb60d43eb553b550000851b5087c5f2438fe62d0023cb600bfda3cb500df
:40584000bfd556050056040062d00252fc53b552fb60d43eb5392db00e56050156040077fc0ffb00801762d00252fc53b552fb60d43eb5392bb00677fc0ffb0056000056b2
:405880000100560200560300807e62d00252fc53b552fb53b651b5010154fc51b6090054fb51b660d43eb553b355b40055b50055b600520008520108520208520308500091
:4058c000080808500a087c570538fc1853af1853b01853b11853b251af02b353b351b00ab453b451b10ab553b551b20ab653b651b31130540351b41900540251b51900541b
:405900000151b61900540062d00252fc53b552fb60d43eb553b550000851b5087c5f0338fe62d0023cb600bf623cb500bf5d3d0400b0063d0500a02262d00252037311ff17
:4059400053b352027319ff53b452017319ff53b552007319ff53b6801462d002520053b6520153b5520253b4520353b338fa207f104f380952fa540352f954023df900b0a0
:405980002f3dfa00b02a62d00252fc53b552fb60d550303fb552fc010153b552fb090060d550003fb552fc53b552fb53b6819752fa110052f931801980d0293df700b02449
:4059c0003df80ab01f56060162d00252037353b552027353b651b50101540351b609005402800456060052fc540152fb540062d00252f70852f8085202085203087c55ab73
:405a000038fe1853b51853b651b5540851b65407500913085207318053ac50801aacc02862d002520153b5520053b651b50101540151b6090054005208013053b451b6608c
:405a4000d551b43fb5802662d002520153b5520053b651b50101540151b6090054005208015753b451b660d551b43fb552f70852f80852020852030862d0027c55ab1854a1
:405a80000318540238fe3d0200bf643d0300bf5f3d0600a02062d002520153b5520053b651b50101540151b60900540051b660d5502d3fb562d002520153b5520053b651e9
:405ac000b501ff540151b609ff540051b660d550003fb552fc540552fb5404805462d002520553b5520460d43eb55406520553b5520453b651b50101540551b609005404a8
:405b0000520153b3520060d43eb353b451b660d551b43fb5520153b5520053b651b501ff540151b609ff540051b660d552063fb55205130152041b00cfa462d00252fc5339
:405b4000b552fb53b638f7207f104f380b52f7540252f8540352f9540452fa54053df700b0393df800b0343df900b02f3dfa00b02a62d00252fc53b552fb60d550303fb546
:405b800052fc010153b552fb090060d550003fb552fc53b552fb53b6822552fa110052f9190052f8190052f731801980d03b3df500b0363df60ab03156080162d00252028c
:405bc0007353b652037353b552047353b45205730101540551b40900540451b50900540351b609005402800456080052fc540152fb540062d00252f653b352f553b447b441
:405c000080a00955b5ff55b6ff800a62d00255b50055b60062d00251b60851b50851b40851b3085202085203085204085205087c55b638fc1853b31853b4181851b353b541
:405c400051b453b651b5540a51b654095009130a5209318053ac50801aacc02862d002520153b5520053b651b50101540151b609005400520a013053b451b660d551b43f90
:405c8000b5802662d002520153b5520053b651b50101540151b609005400520a015753b451b660d551b43fb562d00252f653b352f553b447b480a00955b5ff55b6ff800a5d
:405cc00062d00255b50055b60062d00251b60851b50851b40851b3085202085203085204085205087c55b618540518540418540318540238fc3d0200befa3d0300bef53ddb
:405d00000400bef03d0500beeb3d0800a02062d002520153b5520053b651b50101540151b60900540051b660d5502d3fb562d002520153b5520053b651b501ff540151b61d
:405d400009ff540051b660d550003fb552fc540752fb5406805462d002520753b5520660d43eb55408520753b5520653b651b50101540751b609005406520153b352006019
:405d8000d43eb353b451b660d551b43fb5520153b5520053b651b501ff540151b609ff540051b660d552083fb55207130152061b00cfa462d00252fc53b552fb53b638f584
:405dc000207f104f382656230062d0025ab506b52351b5540156000762d00252f653b352f553b447b480a00955b5ff55b6ff800a62d00255b50055b60062d00251b6085187
:405e0000b50851b40851b30852f70852f80852f90852fa087c55b638fc1853b31853b4181851b353b551b453b651b5542551b65424500913255224318053ac50801aacc0f5
:405e40002862d002520101ff53b5520009ff53b651b5540151b654005225013053b451b660d551b43fb5802662d002520101ff53b5520009ff53b651b5540151b6540052ce
:405e800025015753b451b660d551b43fb562d00252f653b352f553b447b480a00955b5ff55b6ff800a62d00255b50055b60062d00251b60851b50851b40851b30852f70894
:405ec00052f80852f90852fa087c55b61854fa1854f91854f81854f738fc3df700befa3df800bef53df900bef03dfa00beeb52000852010852fb0852fc087c578b38fc389a
:405f0000da207f104f62d00252fc01a053b552fb09071058b5282053b555b60026b50426b600207f104f62d00252fc01a053b552fb09071058b5282053b555b60026b510e5
:405f400026b600207f104f380252fc110052fb31801980c00b52fc540152fb5400800f52fc7311ff540152fb7319ff540062d002520153b5520053b638fe207f000b00ec71
:405f800000f70101010000e00200007002701c03c203c703cb03cf03d303d703db03df03e303e703eb03ef03f203f5028c001e02b72a0344034c035603660370037e03826b
:405fc0000386038a038e03920397039d03a203a803af03b303b803bdffffffff02e1000e02f00007ff00303030303030303030303030303030303030303030303030303033
:406000003030303030303030303030303030303030303030303030303030303030303030303030303030303030303030303030303030303030303030303030303030303060
:406040003030303030303030303030303030303030303030303030303030303030303030303030303030303030303030303030303030303030303030303030303030303020
:4060800030303030303030303030303030303030303030303030303030303030303030303030303030303030303030303030303030303030303030303030303030303030e0
:4060c00030303030303030303030303030303030303030303030303030303030303030303030303030303030303030303030303030303030303030303030303030303030a0
:4073c00030303030303030303030303030303030303030303030303030303030303030303030303030303030303030303030303030303030303030303030303030300000ed
:40740000711062e38770ef41fefb50804e55f80055f900711062e00243e78070ef62e338627105627505627905627d0562d10750004e62d30762d00062d50062d40071c006
:407440007c7ac3711043e32070ef62e000711062e00270ef62e2007c783c8fff104f38013dfb61c01762d00252fb116153b606b60a51b6646464645400800e62d00252fb01
:4074800011306464646454003dfc61c01562d00252fc116153b606b60a52002ab65400801062d00252fc113053b652002ab65400520062d00238ff207f104f3801107c7c11
:4074c000bc62d0022053b626b60851b654003cb600afeb107c7cb962d0022038ff207f104f107c7cc762d0022053b647b610aff21052fc7c7cc420207f104f801862d00280
:4075000052fc53b552fb60d43eb5089fd238ff77fc0ffb0062d00252fc53b552fb60d43eb53900bfd9207f104f385a565700819352577354579f8262d00254003953bff683
:407540009f7762d00254003953b00381789f6a62d00254025200085202089f0038fe62d002540356010180389f4f62d00254009f4862d00254025200085202089ede38fe2d
:4075800062d00253b655b4075ab306b303520102b353b350000ab460d551b63fb377013d0144cfc59f1362d00254003946a00162d002520553b555b60068b66eb568b66e18
:4075c000b568b66eb568b66eb568b66eb568b66eb5520453b355b40065b36bb465b36bb451b302b553b551b40ab653b651b5544851b654475ab506b50751b5544a5649070f
:40760000564b195ab506b5471050070851b55c187c7d8b62d0022052485452524754515ab506b50751b554545653075656405655005ab506b5511050070851b55c187c7f7b
:4076400015205053089e9838ff560100806962d00255b6075ab506b503520102b553b550000ab660d43eb567676767210f54003d000ac00607005780040700305200089ee3
:407680005e38ff62d00255b6075ab506b503520102b553b550000ab660d43eb5210f54023d020ac00607025780040702305202089e2d38ff77013d0144cf945046089e1f11
:4076c00038ff8e6d62d0025073100857fe2853b61875090028203cb600b0073900b00381585659c8565801565001564f00808362d0025250213f53b5524f21003900b039e0
:407700003cb500b034525954485258544762d0025ab506b50351b5544a564907564b195ab506b5471050070851b55c187c7d8b62d0022077590f5800524f085250087c7d8e
:407740004338fe62d00253b655b4075ab306b3035250213f53b1524f210053b251b102b353b351b20ab460d551b63fb377500f4f0062d0025073100857fe2853b6187509b1
:407780000028201350524f318053ac51b631801aacdf5d525954485258544762d0025ab506b50351b5544a564907564b193d5801b0063d59cfa01e62d0025ab506b54710be
:4077c00050070851b55c187c7d8b62d002205659cf56580162d0025073100857fe2853b618750900282051b653b547b580b00655b600800462d00262d00251b554415073a2
:40780000100857fe28187509002820544252595448525854475ab506b50351b5544a564907564b195ab506b5471050070851b55c187c7d8b62d0022038a6207f104f381ce0
:4078400056104356114f56124e56134e561445561543561654561700560c4f560d4b560e21560f001050007c7cb0201050007c7cbf205dff62d00253b647b610a0ca5ab5eb
:4078800006b51050070851b5089c6e38fe107c7cca2010571f50ff7c7cd22010570f50fe7c7cd87c7cce20561a008084107c7cbc62d0022053b647b608a059107c7cb9626f
:4078c000d0022053b655b4075ab306b301521a02b353b350000ab460d551b63fb355b6075ab506b50c521a02b553b550000ab660d43eb553b65ab306b301521a02b353b312
:4079000050000ab460d43eb33ab6b005771a8004561a003d1a03b01862d0025ab506b50c50070851b5089bd138fe9bfb500000107c7cde62d0025ab6203cb600bf6f390026
:40794000bf6b107c7cb520560b007c7d1c62d0023900b004560b0162d0025073100857fe2853b61875090028203cb600b0053900a05d561901561800803362d00252190186
:407980000053b5521809721058b52820541b5218085219087c7d4338fe62d00253b6521b3ab6a004560b0177190f180062d0025073100857fe2853b61875090028201319b9
:4079c0005218318053ac51b631801aacdfad3d0b00b0047d00a6560b0180db560b0056000080569ad462d00253b655b4075ab306b301520002b353b350000ab460d551b621
:407a00003fb355b6075ab506b510520002b553b550000ab660d43eb553b65ab306b301520002b353b350000ab460d43eb33ab6a006560b01800877003d0007cfa73d0b0017
:407a4000a003807262d0025ab506b50c50070851b5089aa538fe56000080569a5c62d00253b655b4075ab306b301520002b353b350000ab460d551b63fb355b6075ab506df
:407a8000b50c520002b553b550000ab660d43eb553b65ab306b301520002b353b350000ab460d43eb33ab6a006560b01800877003d0003cfa73d0b00bf229a6b500000384a
:407ac000e4207f7c7b237c7aca7f1070ef500067507c570c7c7ae3500167507c57737c7ae3207f380210084f56fc00d00456fc01182070ef62e30010082839ffa01f4f48f2
:407b0000fc01a003711054fd18207509001008284f59fd610018207509008fd738fc703f71c07f71106200106201ef70ef6203ef620210711062020062030070ef620100b0
:407b400071106204006205ff70ef6207f7620608711062060062070070ef62050071106208006209ff70ef620bff620a007110620a00620b0070ef6209007110620c006270
:407b80000d0070ef620f00620e007110620e00620f0070ef620d00711062100062110070ef621300621200711062120062130070ef621100711062140062150070ef621718
:407bc00000621600711062160062170070ef621500711062180062190070ef621b00621a007110621a00621b0070ef6219007110621c00621d0070ef621f00621e00711044
:407c0000621e00621f0070ef621d007f2300210022002700258026402f002d002e002b0029002a006028660063056500e600e700d600b090b100b200b333b433b502b6000b
:407c4000b855b900ba10bb33bc33bd00be00c000c100c220c333c433c500c600c855c900ca30cb33cc33cd00ce006c006d006e006f00ff2011211722402431253726402c06
:407c8000052df12e40281d29012a4461006900600062006733683363006600d100d300d000d200e100e200df19de00dd00e700ff2901602f7f4123fe7f5d2e7f5d2f7f29d3
:407cc00001602b7f60297f5d2b7f41e1fd7f4323017f60215b60257f60225b60267f4f5d26085d22085d23084123fe71105d210862210070ef5d245d26085d205d2208528e
:407d00000060265201602271105203602170ef52026023182038fc703f71c07f1051b608500257a053b65000283ab6b01076b6755b39a6bff21853b62050017f1853b62019
:407d400050007f104f51b60851b50851b40852fb59fc5ab665b66a65b66a65b66a65b66a65b66a65b66a58b653b555b64055b4007ab651b52804b4752eb600bff451b4202a
:407d80005ab4205ab5205ab6207f3062d00053f85df70851f870bf60d355fd013cfd01b0c571105de00821f849fe10a00529038003290260e070ef65fd3cfd02b0a890b078
:407dc0003900a00955ff0055fd10808565fd52016a52006a711060fa70ef085201217f53fa08520553fc55fe5651fd3904b07708104f5b010353f955f83a50030020185309
:407e0000fd3cf800a00b55ff0055fd1038fe804165fd1853fa18711060fa70ef520353fb520260d4520653fc55fe5651fd3908b03508104f5b010353f955f83a50020020a6
:407e40001853fd55ff013cf800a00455ff0065fd3cfd10b01118711060e070ef65fd51ff3cfd20a004308ffe703f71c07e30303055fa0362d500711062fa0070ef51fd39cf
:407e800002bfe308104f5b010353f955f83a500600203cff01b075105dd308520460e82180b00951fd540757fb800751fa540757f862d300520060e95deb645dea6a7374e3
:407ec000030153fe217f60e8520267217f60e95dea53ff5deb646bff480201a00602fe0eff00646bff646bff1860d351ff20540651fe540549fe10a00969067706690577ca
:407f000005183902bf6053fd50007f183902bf5653fd50017f62d00053f85df70851f870bf60d3520353fb520260d552047453fd520553fe5201646c00646c00646c00648a
:407f40006c00646c00646c000852002008283ffb1875b002747afeb0057afda00f3cfb00bfeb085dd57460d5188fe2703f71c07e3030303030303030303030303030303060
:407f800030303030303030303030303030303030303030303030303030303030303030303030303030303030303030303030303030303030303030303030303030303030c1
:407fc0003030303030303030303030303030303030303030303030303030303030303030303030303030303030303030303030303030303030303030303030303030303081
:020000040010ea
:4000000003000000000000000000000000000000000000000000000000000000000000000000000000000000000000000000000000000000000000000000000000000000bd
:4000400000000000000000000000000000000000000000000000000000000000000000000000000000000000000000000000000000000000ffffffffffffffffffffffff8c
:020000040020da
:02000000c0a39b
:00000001ff
